{
  "_format": "hh-sol-artifact-1",
  "contractName": "Verifier",
  "sourceName": "contracts/zkAutoChessVerifier.sol",
  "abi": [
    {
      "inputs": [
        {
          "internalType": "uint256[2]",
          "name": "a",
          "type": "uint256[2]"
        },
        {
          "internalType": "uint256[2][2]",
          "name": "b",
          "type": "uint256[2][2]"
        },
        {
          "internalType": "uint256[2]",
          "name": "c",
          "type": "uint256[2]"
        },
        {
          "internalType": "uint256[10]",
          "name": "input",
          "type": "uint256[10]"
        }
      ],
      "name": "verifyProof",
      "outputs": [
        {
          "internalType": "bool",
          "name": "r",
          "type": "bool"
        }
      ],
      "stateMutability": "view",
      "type": "function"
    }
  ],
  "bytecode": "0x608060405234801561001057600080fd5b50611eab806100206000396000f3fe608060405234801561001057600080fd5b506004361061002b5760003560e01c8063f3bb70f614610030575b600080fd5b61004a60048036038101906100459190611952565b610060565b60405161005791906119d6565b60405180910390f35b600061006a611522565b604051806040016040528087600060028110610089576100886119f1565b5b60200201518152602001876001600281106100a7576100a66119f1565b5b6020020151815250816000018190525060405180604001604052806040518060400160405280886000600281106100e1576100e06119f1565b5b60200201516000600281106100f9576100f86119f1565b5b6020020151815260200188600060028110610117576101166119f1565b5b602002015160016002811061012f5761012e6119f1565b5b6020020151815250815260200160405180604001604052808860016002811061015b5761015a6119f1565b5b6020020151600060028110610173576101726119f1565b5b6020020151815260200188600160028110610191576101906119f1565b5b60200201516001600281106101a9576101a86119f1565b5b602002015181525081525081602001819052506040518060400160405280856000600281106101db576101da6119f1565b5b60200201518152602001856001600281106101f9576101f86119f1565b5b602002015181525081604001819052506000600a67ffffffffffffffff81111561022657610225611689565b5b6040519080825280602002602001820160405280156102545781602001602082028036833780820191505090505b50905060005b600a8110156102ad578481600a8110610276576102756119f1565b5b602002015182828151811061028e5761028d6119f1565b5b60200260200101818152505080806102a590611a4f565b91505061025a565b5060006102ba82846102da565b14156102cb576001925050506102d2565b6000925050505b949350505050565b6000807f30644e72e131a029b85045b68181585d2833e84879b9709143e1f593f00000019050600061030a6104cd565b9050806080015151600186516103209190611a98565b14610360576040517f08c379a000000000000000000000000000000000000000000000000000000000815260040161035790611b4b565b60405180910390fd5b60006040518060400160405280600081526020016000815250905060005b865181101561044f578387828151811061039b5761039a6119f1565b5b6020026020010151106103e3576040517f08c379a00000000000000000000000000000000000000000000000000000000081526004016103da90611bb7565b60405180910390fd5b61043a8261043585608001516001856103fc9190611a98565b8151811061040d5761040c6119f1565b5b60200260200101518a8581518110610428576104276119f1565b5b6020026020010151610d09565b610de6565b9150808061044790611a4f565b91505061037e565b5061047981836080015160008151811061046c5761046b6119f1565b5b6020026020010151610de6565b90506104af61048b8660000151610ee9565b8660200151846000015185602001518587604001518b604001518960600151610f8e565b6104bf57600193505050506104c7565b600093505050505b92915050565b6104d5611555565b60405180604001604052807f11a39e68cea9e5e6e609a836fa71583deca43969b2dc4bce2a9072abe300928b81526020017f12129d39ae93bbeb8077b6ee44515c66803c4e83257f632fb883d3bb311d3bc58152508160000181905250604051806040016040528060405180604001604052807f2c3a3a75f43f526402198d08a66af1ac2dea11f0a953f6769adfd1c8f494fdff81526020017f257759d85fd243d2f8d99ea10d10f1244e3f8ed67e5578ded774a0011a27d4ec815250815260200160405180604001604052807f0d113add7b6ec17b81850a104de05a85809a71dcdfb0adeb45dc507b01e12b0181526020017f2a9b1a045b83db9b910140b660ada6105a5e16ec8a934ffaf82d887d2b63d7ec8152508152508160200181905250604051806040016040528060405180604001604052807f198e9393920d483a7260bfb731fb5d25f1aa493335a9e71297e485b7aef312c281526020017f1800deef121f1e76426a00665e5c4479674322d4f75edadd46debd5cd992f6ed815250815260200160405180604001604052807f090689d0585ff075ec9e99ad690c3395bc4b313370b38ef355acdadcd122975b81526020017f12c85ea5db8c6deb4aab71808dcb408fe3d1e7690c43d37b4ce6cc0166fa7daa8152508152508160400181905250604051806040016040528060405180604001604052807f2fe12b5165c11be320742e8ccf12e9214caf21b4dac76d6e05a81e3af6cc1b7a81526020017f23b061f356fd7c5b9d97cf1329d970267ba3058da20ec289ddec9c1db4d2fe86815250815260200160405180604001604052807f26932bd072890ee9fe6fbf7baca1fe92d670d790517281779faf659765131b9d81526020017f275e83da9ed7e8046cce788c9850751a28f4acc281d151c0f7f25e9a1e1a84db8152508152508160600181905250600b67ffffffffffffffff81111561079c5761079b611689565b5b6040519080825280602002602001820160405280156107d557816020015b6107c261159c565b8152602001906001900390816107ba5790505b50816080018190525060405180604001604052807f20748f98daa1e552431f2971ab9d871218eb4d1e305c45d9fcffac00ba461ac181526020017f1ad454d62a50f7b8cae2dd4218e33debfed648c09db4ea56b1fb5f705f93cdc5815250816080015160008151811061084b5761084a6119f1565b5b602002602001018190525060405180604001604052807f022341da9ef8e7db01c5e82b6b798b3d67b40ff819f309c36b3806200e474f4681526020017f22567d0645696a97db7e630817d3bfcd984f739cdef3c64fa528f0e1b5af5a1781525081608001516001815181106108c3576108c26119f1565b5b602002602001018190525060405180604001604052807f17b6d1a2dad494215d8172e4bf33f94ee11d45c9a0512eada644f72fb82e769b81526020017f1029f762d62aa8d779f4f69bfae39b351f9fcd1abe6810fc669be2206e53d5f0815250816080015160028151811061093b5761093a6119f1565b5b602002602001018190525060405180604001604052807f2fde951f766ce8e69b681408965315998ac4eaad0830126a96d0aabec04b6a7281526020017f04a21376be296606069c83fe9bafe705cfb145f78badd46ea087c7fdece2527f81525081608001516003815181106109b3576109b26119f1565b5b602002602001018190525060405180604001604052807f0eca2f79101145910ff41193ad22b1ca4f9704c189a3cb66cbc17d3976eea67a81526020017f0599e6d6ae0a0aeb74a4544ae7d8a48afc9ab7cf38004dcc66485d0ea9bc69868152508160800151600481518110610a2b57610a2a6119f1565b5b602002602001018190525060405180604001604052807f28111ad9490ea8da926feeab5543bb8781f8634e93bfc0051b16e89e5529e6cf81526020017f29130da95cb6f848416bef3c60f22cd9d57d4afd93cdc004dfb710fe7c61a50f8152508160800151600581518110610aa357610aa26119f1565b5b602002602001018190525060405180604001604052807f2b7e8cc3e082f38ca2774f17c3b4d0796bafe281891415170b992579a8c7e67a81526020017f0a5ce08f10155912e4f004b72e208fb2276346ef75a5aeb60a2db9ff5260d6798152508160800151600681518110610b1b57610b1a6119f1565b5b602002602001018190525060405180604001604052807f2e3b3ada40983188abc7d89726c1abad1c9c6a965d354eb6b92fab6b0fd3245a81526020017f0fabb80590bc8c08b6f998888175eff5566bf81914745dad58378f9a0ea475dd8152508160800151600781518110610b9357610b926119f1565b5b602002602001018190525060405180604001604052807f1b053ceeeb554e8c18516ed59a215d65c87ea93ae035e7dea8185a8d033d778981526020017f046ad1e3e8a6221aac3992be5c3e86960f65e2883c8ed10b57c912806f2ff6e78152508160800151600881518110610c0b57610c0a6119f1565b5b602002602001018190525060405180604001604052807f0b56c870d6aa91ff074d32adfae4c9608f2aa8a7324c0106117d79047c39eca181526020017f0e4e1675532a74553a7507e3e203e6aa791feb88a3f49380197dd9478f566d948152508160800151600981518110610c8357610c826119f1565b5b602002602001018190525060405180604001604052807f10add47a23f9addb39661b066f06db1cae9377400fe55a8c57c33687c5a885de81526020017f2b00d50361023e729622a7bd6f9577f7b9425ae8729643c24a0f4d959f21619d8152508160800151600a81518110610cfb57610cfa6119f1565b5b602002602001018190525090565b610d1161159c565b610d196115b6565b836000015181600060038110610d3257610d316119f1565b5b602002018181525050836020015181600160038110610d5457610d536119f1565b5b6020020181815250508281600260038110610d7257610d716119f1565b5b602002018181525050600060608360808460076107d05a03fa90508060008114610d9b57610d9d565bfe5b5080610dde576040517f08c379a0000000000000000000000000000000000000000000000000000000008152600401610dd590611c23565b60405180910390fd5b505092915050565b610dee61159c565b610df66115d8565b836000015181600060048110610e0f57610e0e6119f1565b5b602002018181525050836020015181600160048110610e3157610e306119f1565b5b602002018181525050826000015181600260048110610e5357610e526119f1565b5b602002018181525050826020015181600360048110610e7557610e746119f1565b5b602002018181525050600060608360c08460066107d05a03fa90508060008114610e9e57610ea0565bfe5b5080610ee1576040517f08c379a0000000000000000000000000000000000000000000000000000000008152600401610ed890611c8f565b60405180910390fd5b505092915050565b610ef161159c565b60007f30644e72e131a029b85045b68181585d97816a916871ca8d3c208c16d87cfd47905060008360000151148015610f2e575060008360200151145b15610f52576040518060400160405280600081526020016000815250915050610f89565b604051806040016040528084600001518152602001828560200151610f779190611cde565b83610f829190611d0f565b8152509150505b919050565b600080600467ffffffffffffffff811115610fac57610fab611689565b5b604051908082528060200260200182016040528015610fe557816020015b610fd261159c565b815260200190600190039081610fca5790505b5090506000600467ffffffffffffffff81111561100557611004611689565b5b60405190808252806020026020018201604052801561103e57816020015b61102b6115fa565b8152602001906001900390816110235790505b5090508a82600081518110611056576110556119f1565b5b60200260200101819052508882600181518110611076576110756119f1565b5b60200260200101819052508682600281518110611096576110956119f1565b5b602002602001018190525084826003815181106110b6576110b56119f1565b5b602002602001018190525089816000815181106110d6576110d56119f1565b5b602002602001018190525087816001815181106110f6576110f56119f1565b5b60200260200101819052508581600281518110611116576111156119f1565b5b60200260200101819052508381600381518110611136576111356119f1565b5b602002602001018190525061114b828261115b565b9250505098975050505050505050565b600081518351146111a1576040517f08c379a000000000000000000000000000000000000000000000000000000000815260040161119890611d8f565b60405180910390fd5b60008351905060006006826111b69190611daf565b905060008167ffffffffffffffff8111156111d4576111d3611689565b5b6040519080825280602002602001820160405280156112025781602001602082028036833780820191505090505b50905060005b8381101561148757868181518110611223576112226119f1565b5b60200260200101516000015182600060068461123f9190611daf565b6112499190611a98565b8151811061125a576112596119f1565b5b602002602001018181525050868181518110611279576112786119f1565b5b6020026020010151602001518260016006846112959190611daf565b61129f9190611a98565b815181106112b0576112af6119f1565b5b6020026020010181815250508581815181106112cf576112ce6119f1565b5b6020026020010151600001516000600281106112ee576112ed6119f1565b5b60200201518260026006846113039190611daf565b61130d9190611a98565b8151811061131e5761131d6119f1565b5b60200260200101818152505085818151811061133d5761133c6119f1565b5b60200260200101516000015160016002811061135c5761135b6119f1565b5b60200201518260036006846113719190611daf565b61137b9190611a98565b8151811061138c5761138b6119f1565b5b6020026020010181815250508581815181106113ab576113aa6119f1565b5b6020026020010151602001516000600281106113ca576113c96119f1565b5b60200201518260046006846113df9190611daf565b6113e99190611a98565b815181106113fa576113f96119f1565b5b602002602001018181525050858181518110611419576114186119f1565b5b602002602001015160200151600160028110611438576114376119f1565b5b602002015182600560068461144d9190611daf565b6114579190611a98565b81518110611468576114676119f1565b5b602002602001018181525050808061147f90611a4f565b915050611208565b50611490611620565b6000602082602086026020860160086107d05a03fa905080600081146114b5576114b7565bfe5b50806114f8576040517f08c379a00000000000000000000000000000000000000000000000000000000081526004016114ef90611e55565b60405180910390fd5b60008260006001811061150e5761150d6119f1565b5b602002015114159550505050505092915050565b604051806060016040528061153561159c565b81526020016115426115fa565b815260200161154f61159c565b81525090565b6040518060a0016040528061156861159c565b81526020016115756115fa565b81526020016115826115fa565b815260200161158f6115fa565b8152602001606081525090565b604051806040016040528060008152602001600081525090565b6040518060600160405280600390602082028036833780820191505090505090565b6040518060800160405280600490602082028036833780820191505090505090565b604051806040016040528061160d611642565b815260200161161a611642565b81525090565b6040518060200160405280600190602082028036833780820191505090505090565b6040518060400160405280600290602082028036833780820191505090505090565b6000604051905090565b600080fd5b600080fd5b6000601f19601f8301169050919050565b7f4e487b7100000000000000000000000000000000000000000000000000000000600052604160045260246000fd5b6116c182611678565b810181811067ffffffffffffffff821117156116e0576116df611689565b5b80604052505050565b60006116f3611664565b90506116ff82826116b8565b919050565b600067ffffffffffffffff82111561171f5761171e611689565b5b602082029050919050565b600080fd5b6000819050919050565b6117428161172f565b811461174d57600080fd5b50565b60008135905061175f81611739565b92915050565b600061177861177384611704565b6116e9565b905080602084028301858111156117925761179161172a565b5b835b818110156117bb57806117a78882611750565b845260208401935050602081019050611794565b5050509392505050565b600082601f8301126117da576117d9611673565b5b60026117e7848285611765565b91505092915050565b600067ffffffffffffffff82111561180b5761180a611689565b5b602082029050919050565b6000611829611824846117f0565b6116e9565b905080604084028301858111156118435761184261172a565b5b835b8181101561186c578061185888826117c5565b845260208401935050604081019050611845565b5050509392505050565b600082601f83011261188b5761188a611673565b5b6002611898848285611816565b91505092915050565b600067ffffffffffffffff8211156118bc576118bb611689565b5b602082029050919050565b60006118da6118d5846118a1565b6116e9565b905080602084028301858111156118f4576118f361172a565b5b835b8181101561191d57806119098882611750565b8452602084019350506020810190506118f6565b5050509392505050565b600082601f83011261193c5761193b611673565b5b600a6119498482856118c7565b91505092915050565b600080600080610240858703121561196d5761196c61166e565b5b600061197b878288016117c5565b945050604061198c87828801611876565b93505060c061199d878288016117c5565b9250506101006119af87828801611927565b91505092959194509250565b60008115159050919050565b6119d0816119bb565b82525050565b60006020820190506119eb60008301846119c7565b92915050565b7f4e487b7100000000000000000000000000000000000000000000000000000000600052603260045260246000fd5b7f4e487b7100000000000000000000000000000000000000000000000000000000600052601160045260246000fd5b6000611a5a8261172f565b91507fffffffffffffffffffffffffffffffffffffffffffffffffffffffffffffffff821415611a8d57611a8c611a20565b5b600182019050919050565b6000611aa38261172f565b9150611aae8361172f565b9250827fffffffffffffffffffffffffffffffffffffffffffffffffffffffffffffffff03821115611ae357611ae2611a20565b5b828201905092915050565b600082825260208201905092915050565b7f76657269666965722d6261642d696e7075740000000000000000000000000000600082015250565b6000611b35601283611aee565b9150611b4082611aff565b602082019050919050565b60006020820190508181036000830152611b6481611b28565b9050919050565b7f76657269666965722d6774652d736e61726b2d7363616c61722d6669656c6400600082015250565b6000611ba1601f83611aee565b9150611bac82611b6b565b602082019050919050565b60006020820190508181036000830152611bd081611b94565b9050919050565b7f70616972696e672d6d756c2d6661696c65640000000000000000000000000000600082015250565b6000611c0d601283611aee565b9150611c1882611bd7565b602082019050919050565b60006020820190508181036000830152611c3c81611c00565b9050919050565b7f70616972696e672d6164642d6661696c65640000000000000000000000000000600082015250565b6000611c79601283611aee565b9150611c8482611c43565b602082019050919050565b60006020820190508181036000830152611ca881611c6c565b9050919050565b7f4e487b7100000000000000000000000000000000000000000000000000000000600052601260045260246000fd5b6000611ce98261172f565b9150611cf48361172f565b925082611d0457611d03611caf565b5b828206905092915050565b6000611d1a8261172f565b9150611d258361172f565b925082821015611d3857611d37611a20565b5b828203905092915050565b7f70616972696e672d6c656e677468732d6661696c656400000000000000000000600082015250565b6000611d79601683611aee565b9150611d8482611d43565b602082019050919050565b60006020820190508181036000830152611da881611d6c565b9050919050565b6000611dba8261172f565b9150611dc58361172f565b9250817fffffffffffffffffffffffffffffffffffffffffffffffffffffffffffffffff0483118215151615611dfe57611dfd611a20565b5b828202905092915050565b7f70616972696e672d6f70636f64652d6661696c65640000000000000000000000600082015250565b6000611e3f601583611aee565b9150611e4a82611e09565b602082019050919050565b60006020820190508181036000830152611e6e81611e32565b905091905056fea264697066735822122003c73f504f9868a77320bf105835915056902dd35211cd8231508d5e1767990964736f6c634300080a0033",
  "linkReferences": {},
  "deployedLinkReferences": {}
}