{
  "_format": "hh-sol-artifact-1",
  "contractName": "zkAutoChess",
  "sourceName": "contracts/zkAutoChess.sol",
  "abi": [
    {
      "inputs": [
        {
          "internalType": "address",
          "name": "_verifier",
          "type": "address"
        }
      ],
      "stateMutability": "nonpayable",
      "type": "constructor"
    },
    {
      "anonymous": false,
      "inputs": [
        {
          "indexed": false,
          "internalType": "uint256",
          "name": "battleId",
          "type": "uint256"
        },
        {
          "indexed": false,
          "internalType": "enum zkAutoChess.BattleEventType",
          "name": "eventType",
          "type": "uint8"
        },
        {
          "indexed": false,
          "internalType": "address",
          "name": "account",
          "type": "address"
        }
      ],
      "name": "BattleLog",
      "type": "event"
    },
    {
      "anonymous": false,
      "inputs": [
        {
          "indexed": true,
          "internalType": "address",
          "name": "previousOwner",
          "type": "address"
        },
        {
          "indexed": true,
          "internalType": "address",
          "name": "newOwner",
          "type": "address"
        }
      ],
      "name": "OwnershipTransferred",
      "type": "event"
    },
    {
      "inputs": [
        {
          "internalType": "uint256",
          "name": "",
          "type": "uint256"
        },
        {
          "internalType": "address",
          "name": "",
          "type": "address"
        }
      ],
      "name": "battlePlayers",
      "outputs": [
        {
          "internalType": "uint256",
          "name": "fieldHash",
          "type": "uint256"
        },
        {
          "internalType": "uint256",
          "name": "salt",
          "type": "uint256"
        }
      ],
      "stateMutability": "view",
      "type": "function"
    },
    {
      "inputs": [
        {
          "internalType": "uint256",
          "name": "",
          "type": "uint256"
        }
      ],
      "name": "battles",
      "outputs": [
        {
          "internalType": "address",
          "name": "playerA",
          "type": "address"
        },
        {
          "internalType": "address",
          "name": "playerB",
          "type": "address"
        },
        {
          "internalType": "bool",
          "name": "canJoin",
          "type": "bool"
        },
        {
          "internalType": "bool",
          "name": "canReveal",
          "type": "bool"
        },
        {
          "internalType": "address",
          "name": "winner",
          "type": "address"
        }
      ],
      "stateMutability": "view",
      "type": "function"
    },
    {
      "inputs": [
        {
          "internalType": "uint256",
          "name": "",
          "type": "uint256"
        }
      ],
      "name": "chessPieces",
      "outputs": [
        {
          "internalType": "bytes32",
          "name": "name",
          "type": "bytes32"
        },
        {
          "internalType": "uint256",
          "name": "health",
          "type": "uint256"
        },
        {
          "internalType": "uint256",
          "name": "attack",
          "type": "uint256"
        },
        {
          "internalType": "uint256",
          "name": "range",
          "type": "uint256"
        }
      ],
      "stateMutability": "view",
      "type": "function"
    },
    {
      "inputs": [],
      "name": "createBattle",
      "outputs": [],
      "stateMutability": "nonpayable",
      "type": "function"
    },
    {
      "inputs": [
        {
          "internalType": "uint256",
          "name": "battleId",
          "type": "uint256"
        },
        {
          "internalType": "uint256",
          "name": "hash",
          "type": "uint256"
        }
      ],
      "name": "deploy",
      "outputs": [],
      "stateMutability": "nonpayable",
      "type": "function"
    },
    {
      "inputs": [
        {
          "internalType": "uint256",
          "name": "battleId",
          "type": "uint256"
        }
      ],
      "name": "getBattle",
      "outputs": [
        {
          "components": [
            {
              "internalType": "address",
              "name": "playerA",
              "type": "address"
            },
            {
              "internalType": "address",
              "name": "playerB",
              "type": "address"
            },
            {
              "internalType": "bool",
              "name": "canJoin",
              "type": "bool"
            },
            {
              "internalType": "bool",
              "name": "canReveal",
              "type": "bool"
            },
            {
              "internalType": "address",
              "name": "winner",
              "type": "address"
            }
          ],
          "internalType": "struct zkAutoChess.Battle",
          "name": "",
          "type": "tuple"
        }
      ],
      "stateMutability": "view",
      "type": "function"
    },
    {
      "inputs": [
        {
          "internalType": "uint256",
          "name": "battleId",
          "type": "uint256"
        }
      ],
      "name": "getBattlePlayerState",
      "outputs": [
        {
          "internalType": "uint256",
          "name": "",
          "type": "uint256"
        }
      ],
      "stateMutability": "view",
      "type": "function"
    },
    {
      "inputs": [
        {
          "internalType": "uint256",
          "name": "chessPieceId",
          "type": "uint256"
        }
      ],
      "name": "getChessPiece",
      "outputs": [
        {
          "components": [
            {
              "internalType": "bytes32",
              "name": "name",
              "type": "bytes32"
            },
            {
              "internalType": "uint256",
              "name": "health",
              "type": "uint256"
            },
            {
              "internalType": "uint256",
              "name": "attack",
              "type": "uint256"
            },
            {
              "internalType": "uint256",
              "name": "range",
              "type": "uint256"
            }
          ],
          "internalType": "struct zkAutoChess.ChessPiece",
          "name": "",
          "type": "tuple"
        }
      ],
      "stateMutability": "view",
      "type": "function"
    },
    {
      "inputs": [],
      "name": "getLastBattleId",
      "outputs": [
        {
          "internalType": "uint256",
          "name": "",
          "type": "uint256"
        }
      ],
      "stateMutability": "view",
      "type": "function"
    },
    {
      "inputs": [],
      "name": "getPlayerBattles",
      "outputs": [
        {
          "internalType": "uint256[]",
          "name": "",
          "type": "uint256[]"
        }
      ],
      "stateMutability": "view",
      "type": "function"
    },
    {
      "inputs": [
        {
          "internalType": "uint256",
          "name": "battleId",
          "type": "uint256"
        }
      ],
      "name": "joinBattle",
      "outputs": [],
      "stateMutability": "nonpayable",
      "type": "function"
    },
    {
      "inputs": [],
      "name": "owner",
      "outputs": [
        {
          "internalType": "address",
          "name": "",
          "type": "address"
        }
      ],
      "stateMutability": "view",
      "type": "function"
    },
    {
      "inputs": [
        {
          "internalType": "address",
          "name": "",
          "type": "address"
        },
        {
          "internalType": "uint256",
          "name": "",
          "type": "uint256"
        }
      ],
      "name": "playerBattleIds",
      "outputs": [
        {
          "internalType": "uint256",
          "name": "",
          "type": "uint256"
        }
      ],
      "stateMutability": "view",
      "type": "function"
    },
    {
      "inputs": [],
      "name": "renounceOwnership",
      "outputs": [],
      "stateMutability": "nonpayable",
      "type": "function"
    },
    {
      "inputs": [
        {
          "internalType": "uint256",
          "name": "battleId",
          "type": "uint256"
        },
        {
          "internalType": "uint256[8]",
          "name": "input",
          "type": "uint256[8]"
        },
        {
          "internalType": "uint256",
          "name": "salt",
          "type": "uint256"
        },
        {
          "internalType": "uint256[2]",
          "name": "a",
          "type": "uint256[2]"
        },
        {
          "internalType": "uint256[2][2]",
          "name": "b",
          "type": "uint256[2][2]"
        },
        {
          "internalType": "uint256[2]",
          "name": "c",
          "type": "uint256[2]"
        }
      ],
      "name": "reveal",
      "outputs": [],
      "stateMutability": "nonpayable",
      "type": "function"
    },
    {
      "inputs": [
        {
          "internalType": "uint256",
          "name": "chessPieceId",
          "type": "uint256"
        },
        {
          "internalType": "bytes32",
          "name": "name",
          "type": "bytes32"
        },
        {
          "internalType": "uint256",
          "name": "health",
          "type": "uint256"
        },
        {
          "internalType": "uint256",
          "name": "attack",
          "type": "uint256"
        },
        {
          "internalType": "uint256",
          "name": "range",
          "type": "uint256"
        }
      ],
      "name": "setChessPiece",
      "outputs": [],
      "stateMutability": "nonpayable",
      "type": "function"
    },
    {
      "inputs": [
        {
          "internalType": "address",
          "name": "newOwner",
          "type": "address"
        }
      ],
      "name": "transferOwnership",
      "outputs": [],
      "stateMutability": "nonpayable",
      "type": "function"
    }
  ],
  "bytecode": "0x60806040523480156200001157600080fd5b5060405162002b6438038062002b648339818101604052810190620000379190620001d5565b620000576200004b6200009f60201b60201c565b620000a760201b60201c565b80600160006101000a81548173ffffffffffffffffffffffffffffffffffffffff021916908373ffffffffffffffffffffffffffffffffffffffff1602179055505062000207565b600033905090565b60008060009054906101000a900473ffffffffffffffffffffffffffffffffffffffff169050816000806101000a81548173ffffffffffffffffffffffffffffffffffffffff021916908373ffffffffffffffffffffffffffffffffffffffff1602179055508173ffffffffffffffffffffffffffffffffffffffff168173ffffffffffffffffffffffffffffffffffffffff167f8be0079c531659141344cd1fd0a4f28419497f9722a3daafe3b4186f6b6457e060405160405180910390a35050565b600080fd5b600073ffffffffffffffffffffffffffffffffffffffff82169050919050565b60006200019d8262000170565b9050919050565b620001af8162000190565b8114620001bb57600080fd5b50565b600081519050620001cf81620001a4565b92915050565b600060208284031215620001ee57620001ed6200016b565b5b6000620001fe84828501620001be565b91505092915050565b61294d80620002176000396000f3fe608060405234801561001057600080fd5b506004361061010b5760003560e01c806361cb1212116100a25780638da5cb5b116100715780638da5cb5b146102be578063cf576449146102dc578063ea8acc841461030c578063f254d3941461032a578063f2fde38b146103465761010b565b806361cb12121461025e5780636dd0ce7a14610268578063715018a614610298578063897a675d146102a25761010b565b8063439c444d116100de578063439c444d146101c25780634a042f0d146101f25780635e79bb601461020e578063606d2e961461022a5761010b565b806307d3bff5146101105780631b9a83041461012e578063292c09a6146101615780633eea6a1c14610191575b600080fd5b610118610362565b6040516101259190611afd565b60405180910390f35b61014860048036038101906101439190611b50565b6103f7565b6040516101589493929190611ba5565b60405180910390f35b61017b60048036038101906101769190611b50565b610427565b6040516101889190611bea565b60405180910390f35b6101ab60048036038101906101a69190611c63565b6104c9565b6040516101b9929190611ca3565b60405180910390f35b6101dc60048036038101906101d79190611ccc565b6104fa565b6040516101e99190611bea565b60405180910390f35b61020c60048036038101906102079190611b50565b61052b565b005b61022860048036038101906102239190611d0c565b6107a5565b005b610244600480360381019061023f9190611b50565b610b59565b604051610255959493929190611d76565b60405180910390f35b610266610c09565b005b610282600480360381019061027d9190611b50565b610e67565b60405161028f9190611e4f565b60405180910390f35b6102a0611011565b005b6102bc60048036038101906102b79190611e96565b611099565b005b6102c66111be565b6040516102d39190611f11565b60405180910390f35b6102f660048036038101906102f19190611b50565b6111e7565b6040516103039190611f90565b60405180910390f35b61031461123c565b6040516103219190611bea565b60405180910390f35b610344600480360381019061033f9190612016565b611246565b005b610360600480360381019061035b91906120a8565b611744565b005b6060600660003373ffffffffffffffffffffffffffffffffffffffff1673ffffffffffffffffffffffffffffffffffffffff1681526020019081526020016000208054806020026020016040519081016040528092919081815260200182805480156103ed57602002820191906000526020600020905b8154815260200190600101908083116103d9575b5050505050905090565b60026020528060005260406000206000915090508060000154908060010154908060020154908060030154905084565b600060035482111561046e576040517f08c379a000000000000000000000000000000000000000000000000000000000815260040161046590612132565b60405180910390fd5b6005600083815260200190815260200160002060003373ffffffffffffffffffffffffffffffffffffffff1673ffffffffffffffffffffffffffffffffffffffff168152602001908152602001600020600001549050919050565b6005602052816000526040600020602052806000526040600020600091509150508060000154908060020154905082565b6006602052816000526040600020818154811061051657600080fd5b90600052602060002001600091509150505481565b600354811115610570576040517f08c379a000000000000000000000000000000000000000000000000000000000815260040161056790612132565b60405180910390fd5b6004600082815260200190815260200160002060010160149054906101000a900460ff166105d3576040517f08c379a00000000000000000000000000000000000000000000000000000000081526004016105ca9061219e565b60405180910390fd5b6004600082815260200190815260200160002060000160009054906101000a900473ffffffffffffffffffffffffffffffffffffffff1673ffffffffffffffffffffffffffffffffffffffff163373ffffffffffffffffffffffffffffffffffffffff161415610678576040517f08c379a000000000000000000000000000000000000000000000000000000000815260040161066f9061220a565b60405180910390fd5b60006004600083815260200190815260200160002060010160146101000a81548160ff021916908315150217905550600660003373ffffffffffffffffffffffffffffffffffffffff1673ffffffffffffffffffffffffffffffffffffffff1681526020019081526020016000206003549080600181540180825580915050600190039060005260206000200160009091909190915055336004600083815260200190815260200160002060010160006101000a81548173ffffffffffffffffffffffffffffffffffffffff021916908373ffffffffffffffffffffffffffffffffffffffff1602179055507f604dc18f0e116d898619b9bd30146dd9cf5082edc4f10ffd7006d42d8556c25b60035460013360405161079a939291906122a1565b60405180910390a150565b816003548111156107eb576040517f08c379a00000000000000000000000000000000000000000000000000000000081526004016107e290612132565b60405180910390fd5b600073ffffffffffffffffffffffffffffffffffffffff166004600083815260200190815260200160002060010160009054906101000a900473ffffffffffffffffffffffffffffffffffffffff1673ffffffffffffffffffffffffffffffffffffffff161415610891576040517f08c379a000000000000000000000000000000000000000000000000000000000815260040161088890612324565b60405180910390fd5b826004600082815260200190815260200160002060000160009054906101000a900473ffffffffffffffffffffffffffffffffffffffff1673ffffffffffffffffffffffffffffffffffffffff163373ffffffffffffffffffffffffffffffffffffffff16148061096357506004600082815260200190815260200160002060010160009054906101000a900473ffffffffffffffffffffffffffffffffffffffff1673ffffffffffffffffffffffffffffffffffffffff163373ffffffffffffffffffffffffffffffffffffffff16145b6109a2576040517f08c379a000000000000000000000000000000000000000000000000000000000815260040161099990612390565b60405180910390fd5b826005600086815260200190815260200160002060003373ffffffffffffffffffffffffffffffffffffffff1673ffffffffffffffffffffffffffffffffffffffff1681526020019081526020016000206000018190555060006005600086815260200190815260200160002060006004600088815260200190815260200160002060000160009054906101000a900473ffffffffffffffffffffffffffffffffffffffff1673ffffffffffffffffffffffffffffffffffffffff1673ffffffffffffffffffffffffffffffffffffffff1681526020019081526020016000206000015414158015610b1e575060006005600086815260200190815260200160002060006004600088815260200190815260200160002060010160009054906101000a900473ffffffffffffffffffffffffffffffffffffffff1673ffffffffffffffffffffffffffffffffffffffff1673ffffffffffffffffffffffffffffffffffffffff1681526020019081526020016000206000015414155b15610b535760016004600086815260200190815260200160002060010160156101000a81548160ff0219169083151502179055505b50505050565b60046020528060005260406000206000915090508060000160009054906101000a900473ffffffffffffffffffffffffffffffffffffffff16908060010160009054906101000a900473ffffffffffffffffffffffffffffffffffffffff16908060010160149054906101000a900460ff16908060010160159054906101000a900460ff16908060020160009054906101000a900473ffffffffffffffffffffffffffffffffffffffff16905085565b60036000815480929190610c1c906123df565b91905055506040518060a001604052803373ffffffffffffffffffffffffffffffffffffffff168152602001600073ffffffffffffffffffffffffffffffffffffffff168152602001600115158152602001600015158152602001600073ffffffffffffffffffffffffffffffffffffffff1681525060046000600354815260200190815260200160002060008201518160000160006101000a81548173ffffffffffffffffffffffffffffffffffffffff021916908373ffffffffffffffffffffffffffffffffffffffff16021790555060208201518160010160006101000a81548173ffffffffffffffffffffffffffffffffffffffff021916908373ffffffffffffffffffffffffffffffffffffffff16021790555060408201518160010160146101000a81548160ff02191690831515021790555060608201518160010160156101000a81548160ff02191690831515021790555060808201518160020160006101000a81548173ffffffffffffffffffffffffffffffffffffffff021916908373ffffffffffffffffffffffffffffffffffffffff160217905550905050600660003373ffffffffffffffffffffffffffffffffffffffff1673ffffffffffffffffffffffffffffffffffffffff16815260200190815260200160002060035490806001815401808255809150506001900390600052602060002001600090919091909150557f604dc18f0e116d898619b9bd30146dd9cf5082edc4f10ffd7006d42d8556c25b600354600033604051610e5d939291906122a1565b60405180910390a1565b610e6f611908565b600354821115610eb4576040517f08c379a0000000000000000000000000000000000000000000000000000000008152600401610eab90612132565b60405180910390fd5b600460008381526020019081526020016000206040518060a00160405290816000820160009054906101000a900473ffffffffffffffffffffffffffffffffffffffff1673ffffffffffffffffffffffffffffffffffffffff1673ffffffffffffffffffffffffffffffffffffffff1681526020016001820160009054906101000a900473ffffffffffffffffffffffffffffffffffffffff1673ffffffffffffffffffffffffffffffffffffffff1673ffffffffffffffffffffffffffffffffffffffff1681526020016001820160149054906101000a900460ff161515151581526020016001820160159054906101000a900460ff161515151581526020016002820160009054906101000a900473ffffffffffffffffffffffffffffffffffffffff1673ffffffffffffffffffffffffffffffffffffffff1673ffffffffffffffffffffffffffffffffffffffff16815250509050919050565b61101961183c565b73ffffffffffffffffffffffffffffffffffffffff166110376111be565b73ffffffffffffffffffffffffffffffffffffffff161461108d576040517f08c379a000000000000000000000000000000000000000000000000000000000815260040161108490612474565b60405180910390fd5b6110976000611844565b565b6110a161183c565b73ffffffffffffffffffffffffffffffffffffffff166110bf6111be565b73ffffffffffffffffffffffffffffffffffffffff1614611115576040517f08c379a000000000000000000000000000000000000000000000000000000000815260040161110c90612474565b60405180910390fd5b60008511611158576040517f08c379a000000000000000000000000000000000000000000000000000000000815260040161114f90612506565b60405180910390fd5b60405180608001604052808581526020018481526020018381526020018281525060026000878152602001908152602001600020600082015181600001556020820151816001015560408201518160020155606082015181600301559050505050505050565b60008060009054906101000a900473ffffffffffffffffffffffffffffffffffffffff16905090565b6111ef61197d565b600260008381526020019081526020016000206040518060800160405290816000820154815260200160018201548152602001600282015481526020016003820154815250509050919050565b6000600354905090565b8560035481111561128c576040517f08c379a000000000000000000000000000000000000000000000000000000000815260040161128390612132565b60405180910390fd5b600073ffffffffffffffffffffffffffffffffffffffff166004600083815260200190815260200160002060010160009054906101000a900473ffffffffffffffffffffffffffffffffffffffff1673ffffffffffffffffffffffffffffffffffffffff161415611332576040517f08c379a000000000000000000000000000000000000000000000000000000000815260040161132990612324565b60405180910390fd5b866004600082815260200190815260200160002060000160009054906101000a900473ffffffffffffffffffffffffffffffffffffffff1673ffffffffffffffffffffffffffffffffffffffff163373ffffffffffffffffffffffffffffffffffffffff16148061140457506004600082815260200190815260200160002060010160009054906101000a900473ffffffffffffffffffffffffffffffffffffffff1673ffffffffffffffffffffffffffffffffffffffff163373ffffffffffffffffffffffffffffffffffffffff16145b611443576040517f08c379a000000000000000000000000000000000000000000000000000000000815260040161143a90612390565b60405180910390fd5b6004600089815260200190815260200160002060010160159054906101000a900460ff166114a6576040517f08c379a000000000000000000000000000000000000000000000000000000000815260040161149d90612572565b60405180910390fd5b6114ae6119a8565b600560008a815260200190815260200160002060003373ffffffffffffffffffffffffffffffffffffffff1673ffffffffffffffffffffffffffffffffffffffff16815260200190815260200160002060000154816000600a811061151657611515612592565b5b60200201818152505060005b600881101561157e5788816008811061153e5761153d612592565b5b60200201358260018361155191906125c1565b600a811061156257611561612592565b5b6020020181815250508080611576906123df565b915050611522565b5086816009600a811061159457611593612592565b5b602002018181525050600160009054906101000a900473ffffffffffffffffffffffffffffffffffffffff1673ffffffffffffffffffffffffffffffffffffffff1663f3bb70f6878787856040518563ffffffff1660e01b81526004016115fe9493929190612779565b602060405180830381865afa15801561161b573d6000803e3d6000fd5b505050506040513d601f19601f8201168201806040525081019061163f91906127ec565b61167e576040517f08c379a000000000000000000000000000000000000000000000000000000000815260040161167590612865565b60405180910390fd5b87600560008b815260200190815260200160002060003373ffffffffffffffffffffffffffffffffffffffff1673ffffffffffffffffffffffffffffffffffffffff1681526020019081526020016000206001019060086116e09291906119cb565b5086600560008b815260200190815260200160002060003373ffffffffffffffffffffffffffffffffffffffff1673ffffffffffffffffffffffffffffffffffffffff16815260200190815260200160002060020181905550505050505050505050565b61174c61183c565b73ffffffffffffffffffffffffffffffffffffffff1661176a6111be565b73ffffffffffffffffffffffffffffffffffffffff16146117c0576040517f08c379a00000000000000000000000000000000000000000000000000000000081526004016117b790612474565b60405180910390fd5b600073ffffffffffffffffffffffffffffffffffffffff168173ffffffffffffffffffffffffffffffffffffffff161415611830576040517f08c379a0000000000000000000000000000000000000000000000000000000008152600401611827906128f7565b60405180910390fd5b61183981611844565b50565b600033905090565b60008060009054906101000a900473ffffffffffffffffffffffffffffffffffffffff169050816000806101000a81548173ffffffffffffffffffffffffffffffffffffffff021916908373ffffffffffffffffffffffffffffffffffffffff1602179055508173ffffffffffffffffffffffffffffffffffffffff168173ffffffffffffffffffffffffffffffffffffffff167f8be0079c531659141344cd1fd0a4f28419497f9722a3daafe3b4186f6b6457e060405160405180910390a35050565b6040518060a00160405280600073ffffffffffffffffffffffffffffffffffffffff168152602001600073ffffffffffffffffffffffffffffffffffffffff168152602001600015158152602001600015158152602001600073ffffffffffffffffffffffffffffffffffffffff1681525090565b6040518060800160405280600080191681526020016000815260200160008152602001600081525090565b604051806101400160405280600a90602082028036833780820191505090505090565b828054828255906000526020600020908101928215611a07579160200282015b82811115611a065782358255916020019190600101906119eb565b5b509050611a149190611a18565b5090565b5b80821115611a31576000816000905550600101611a19565b5090565b600081519050919050565b600082825260208201905092915050565b6000819050602082019050919050565b6000819050919050565b611a7481611a61565b82525050565b6000611a868383611a6b565b60208301905092915050565b6000602082019050919050565b6000611aaa82611a35565b611ab48185611a40565b9350611abf83611a51565b8060005b83811015611af0578151611ad78882611a7a565b9750611ae283611a92565b925050600181019050611ac3565b5085935050505092915050565b60006020820190508181036000830152611b178184611a9f565b905092915050565b600080fd5b611b2d81611a61565b8114611b3857600080fd5b50565b600081359050611b4a81611b24565b92915050565b600060208284031215611b6657611b65611b1f565b5b6000611b7484828501611b3b565b91505092915050565b6000819050919050565b611b9081611b7d565b82525050565b611b9f81611a61565b82525050565b6000608082019050611bba6000830187611b87565b611bc76020830186611b96565b611bd46040830185611b96565b611be16060830184611b96565b95945050505050565b6000602082019050611bff6000830184611b96565b92915050565b600073ffffffffffffffffffffffffffffffffffffffff82169050919050565b6000611c3082611c05565b9050919050565b611c4081611c25565b8114611c4b57600080fd5b50565b600081359050611c5d81611c37565b92915050565b60008060408385031215611c7a57611c79611b1f565b5b6000611c8885828601611b3b565b9250506020611c9985828601611c4e565b9150509250929050565b6000604082019050611cb86000830185611b96565b611cc56020830184611b96565b9392505050565b60008060408385031215611ce357611ce2611b1f565b5b6000611cf185828601611c4e565b9250506020611d0285828601611b3b565b9150509250929050565b60008060408385031215611d2357611d22611b1f565b5b6000611d3185828601611b3b565b9250506020611d4285828601611b3b565b9150509250929050565b611d5581611c25565b82525050565b60008115159050919050565b611d7081611d5b565b82525050565b600060a082019050611d8b6000830188611d4c565b611d986020830187611d4c565b611da56040830186611d67565b611db26060830185611d67565b611dbf6080830184611d4c565b9695505050505050565b611dd281611c25565b82525050565b611de181611d5b565b82525050565b60a082016000820151611dfd6000850182611dc9565b506020820151611e106020850182611dc9565b506040820151611e236040850182611dd8565b506060820151611e366060850182611dd8565b506080820151611e496080850182611dc9565b50505050565b600060a082019050611e646000830184611de7565b92915050565b611e7381611b7d565b8114611e7e57600080fd5b50565b600081359050611e9081611e6a565b92915050565b600080600080600060a08688031215611eb257611eb1611b1f565b5b6000611ec088828901611b3b565b9550506020611ed188828901611e81565b9450506040611ee288828901611b3b565b9350506060611ef388828901611b3b565b9250506080611f0488828901611b3b565b9150509295509295909350565b6000602082019050611f266000830184611d4c565b92915050565b611f3581611b7d565b82525050565b608082016000820151611f516000850182611f2c565b506020820151611f646020850182611a6b565b506040820151611f776040850182611a6b565b506060820151611f8a6060850182611a6b565b50505050565b6000608082019050611fa56000830184611f3b565b92915050565b600080fd5b600081905082602060080282011115611fcc57611fcb611fab565b5b92915050565b600081905082602060020282011115611fee57611fed611fab565b5b92915050565b6000819050826040600202820111156120105761200f611fab565b5b92915050565b600080600080600080610240878903121561203457612033611b1f565b5b600061204289828a01611b3b565b965050602061205389828a01611fb0565b95505061012061206589828a01611b3b565b94505061014061207789828a01611fd2565b93505061018061208989828a01611ff4565b92505061020061209b89828a01611fd2565b9150509295509295509295565b6000602082840312156120be576120bd611b1f565b5b60006120cc84828501611c4e565b91505092915050565b600082825260208201905092915050565b7f426174746c6520646f6573206e6f742065786973740000000000000000000000600082015250565b600061211c6015836120d5565b9150612127826120e6565b602082019050919050565b6000602082019050818103600083015261214b8161210f565b9050919050565b7f426174746c652069732066756c6c000000000000000000000000000000000000600082015250565b6000612188600e836120d5565b915061219382612152565b602082019050919050565b600060208201905081810360008301526121b78161217b565b9050919050565b7f506c6179657220616c726561647920696e207468697320426174746c65000000600082015250565b60006121f4601d836120d5565b91506121ff826121be565b602082019050919050565b60006020820190508181036000830152612223816121e7565b9050919050565b7f4e487b7100000000000000000000000000000000000000000000000000000000600052602160045260246000fd5b6004811061226a5761226961222a565b5b50565b600081905061227b82612259565b919050565b600061228b8261226d565b9050919050565b61229b81612280565b82525050565b60006060820190506122b66000830186611b96565b6122c36020830185612292565b6122d06040830184611d4c565b949350505050565b7f506c6179657242206973206d697373696e670000000000000000000000000000600082015250565b600061230e6012836120d5565b9150612319826122d8565b602082019050919050565b6000602082019050818103600083015261233d81612301565b9050919050565b7f4f6e6c7920706c6179657273206f6620626174746c6520616c6c6f7765640000600082015250565b600061237a601e836120d5565b915061238582612344565b602082019050919050565b600060208201905081810360008301526123a98161236d565b9050919050565b7f4e487b7100000000000000000000000000000000000000000000000000000000600052601160045260246000fd5b60006123ea82611a61565b91507fffffffffffffffffffffffffffffffffffffffffffffffffffffffffffffffff82141561241d5761241c6123b0565b5b600182019050919050565b7f4f776e61626c653a2063616c6c6572206973206e6f7420746865206f776e6572600082015250565b600061245e6020836120d5565b915061246982612428565b602082019050919050565b6000602082019050818103600083015261248d81612451565b9050919050565b7f636865737350696563654964206d757374206265206c6172676572207468616e60008201527f2030000000000000000000000000000000000000000000000000000000000000602082015250565b60006124f06022836120d5565b91506124fb82612494565b604082019050919050565b6000602082019050818103600083015261251f816124e3565b9050919050565b7f426174746c65206e6f7420726561647920666f722072657665616c0000000000600082015250565b600061255c601b836120d5565b915061256782612526565b602082019050919050565b6000602082019050818103600083015261258b8161254f565b9050919050565b7f4e487b7100000000000000000000000000000000000000000000000000000000600052603260045260246000fd5b60006125cc82611a61565b91506125d783611a61565b9250827fffffffffffffffffffffffffffffffffffffffffffffffffffffffffffffffff0382111561260c5761260b6123b0565b5b828201905092915050565b82818337600083830152505050565b61263260408383612617565b5050565b600060029050919050565b600081905092915050565b6000819050919050565b61266260408383612617565b5050565b60006126728383612656565b60408301905092915050565b600082905092915050565b6000604082019050919050565b61269f81612636565b6126a98184612641565b92506126b48261264c565b8060005b838110156126ed576126ca828461267e565b6126d48782612666565b96506126df83612689565b9250506001810190506126b8565b505050505050565b6000600a9050919050565b600081905092915050565b6000819050919050565b6000602082019050919050565b61272b816126f5565b6127358184612700565b92506127408261270b565b8060005b838110156127715781516127588782611a7a565b965061276383612715565b925050600181019050612744565b505050505050565b60006102408201905061278f6000830187612626565b61279c6040830186612696565b6127a960c0830185612626565b6127b7610100830184612722565b95945050505050565b6127c981611d5b565b81146127d457600080fd5b50565b6000815190506127e6816127c0565b92915050565b60006020828403121561280257612801611b1f565b5b6000612810848285016127d7565b91505092915050565b7f496e76616c69642070726f6f6600000000000000000000000000000000000000600082015250565b600061284f600d836120d5565b915061285a82612819565b602082019050919050565b6000602082019050818103600083015261287e81612842565b9050919050565b7f4f776e61626c653a206e6577206f776e657220697320746865207a65726f206160008201527f6464726573730000000000000000000000000000000000000000000000000000602082015250565b60006128e16026836120d5565b91506128ec82612885565b604082019050919050565b60006020820190508181036000830152612910816128d4565b905091905056fea2646970667358221220c40b0353d104ed486fa7c1f2d232ae23868b7c03a633281342fe51ddea2f56ad64736f6c634300080a0033",
  "linkReferences": {},
  "deployedLinkReferences": {}
}