{
  "_format": "hh-sol-artifact-1",
  "contractName": "zkAutoChess",
  "sourceName": "contracts/zkAutoChess.sol",
  "abi": [
    {
      "inputs": [
        {
          "internalType": "address",
          "name": "_verifier",
          "type": "address"
        }
      ],
      "stateMutability": "nonpayable",
      "type": "constructor"
    },
    {
      "anonymous": false,
      "inputs": [
        {
          "indexed": false,
          "internalType": "uint256",
          "name": "battleId",
          "type": "uint256"
        },
        {
          "indexed": false,
          "internalType": "enum zkAutoChess.BattleEventType",
          "name": "eventType",
          "type": "uint8"
        },
        {
          "indexed": false,
          "internalType": "address",
          "name": "account",
          "type": "address"
        }
      ],
      "name": "BattleLog",
      "type": "event"
    },
    {
      "anonymous": false,
      "inputs": [
        {
          "indexed": true,
          "internalType": "address",
          "name": "previousOwner",
          "type": "address"
        },
        {
          "indexed": true,
          "internalType": "address",
          "name": "newOwner",
          "type": "address"
        }
      ],
      "name": "OwnershipTransferred",
      "type": "event"
    },
    {
      "inputs": [
        {
          "internalType": "uint256",
          "name": "",
          "type": "uint256"
        },
        {
          "internalType": "address",
          "name": "",
          "type": "address"
        }
      ],
      "name": "battlePlayerState",
      "outputs": [
        {
          "internalType": "uint256",
          "name": "fieldHash",
          "type": "uint256"
        },
        {
          "internalType": "uint256",
          "name": "salt",
          "type": "uint256"
        }
      ],
      "stateMutability": "view",
      "type": "function"
    },
    {
      "inputs": [
        {
          "internalType": "uint256",
          "name": "",
          "type": "uint256"
        }
      ],
      "name": "battles",
      "outputs": [
        {
          "internalType": "address",
          "name": "playerA",
          "type": "address"
        },
        {
          "internalType": "address",
          "name": "playerB",
          "type": "address"
        },
        {
          "internalType": "bool",
          "name": "canJoin",
          "type": "bool"
        },
        {
          "internalType": "bool",
          "name": "canReveal",
          "type": "bool"
        },
        {
          "internalType": "address",
          "name": "winner",
          "type": "address"
        }
      ],
      "stateMutability": "view",
      "type": "function"
    },
    {
      "inputs": [
        {
          "internalType": "uint256",
          "name": "",
          "type": "uint256"
        }
      ],
      "name": "chessPieces",
      "outputs": [
        {
          "internalType": "bytes32",
          "name": "name",
          "type": "bytes32"
        },
        {
          "internalType": "uint256",
          "name": "health",
          "type": "uint256"
        },
        {
          "internalType": "uint256",
          "name": "attack",
          "type": "uint256"
        },
        {
          "internalType": "uint256",
          "name": "range",
          "type": "uint256"
        }
      ],
      "stateMutability": "view",
      "type": "function"
    },
    {
      "inputs": [],
      "name": "createBattle",
      "outputs": [],
      "stateMutability": "nonpayable",
      "type": "function"
    },
    {
      "inputs": [
        {
          "internalType": "uint256",
          "name": "battleId",
          "type": "uint256"
        },
        {
          "internalType": "uint256",
          "name": "hash",
          "type": "uint256"
        }
      ],
      "name": "deploy",
      "outputs": [],
      "stateMutability": "nonpayable",
      "type": "function"
    },
    {
      "inputs": [
        {
          "internalType": "uint256",
          "name": "battleId",
          "type": "uint256"
        }
      ],
      "name": "getBattle",
      "outputs": [
        {
          "components": [
            {
              "internalType": "address",
              "name": "playerA",
              "type": "address"
            },
            {
              "internalType": "address",
              "name": "playerB",
              "type": "address"
            },
            {
              "internalType": "bool",
              "name": "canJoin",
              "type": "bool"
            },
            {
              "internalType": "bool",
              "name": "canReveal",
              "type": "bool"
            },
            {
              "internalType": "address",
              "name": "winner",
              "type": "address"
            }
          ],
          "internalType": "struct zkAutoChess.Battle",
          "name": "",
          "type": "tuple"
        }
      ],
      "stateMutability": "view",
      "type": "function"
    },
    {
      "inputs": [
        {
          "internalType": "uint256",
          "name": "battleId",
          "type": "uint256"
        },
        {
          "internalType": "address",
          "name": "player",
          "type": "address"
        }
      ],
      "name": "getBattlePlayerState",
      "outputs": [
        {
          "components": [
            {
              "internalType": "uint256",
              "name": "fieldHash",
              "type": "uint256"
            },
            {
              "internalType": "uint256[]",
              "name": "field",
              "type": "uint256[]"
            },
            {
              "internalType": "uint256",
              "name": "salt",
              "type": "uint256"
            }
          ],
          "internalType": "struct zkAutoChess.BattlePlayerState",
          "name": "",
          "type": "tuple"
        }
      ],
      "stateMutability": "view",
      "type": "function"
    },
    {
      "inputs": [
        {
          "internalType": "uint256",
          "name": "chessPieceId",
          "type": "uint256"
        }
      ],
      "name": "getChessPiece",
      "outputs": [
        {
          "components": [
            {
              "internalType": "bytes32",
              "name": "name",
              "type": "bytes32"
            },
            {
              "internalType": "uint256",
              "name": "health",
              "type": "uint256"
            },
            {
              "internalType": "uint256",
              "name": "attack",
              "type": "uint256"
            },
            {
              "internalType": "uint256",
              "name": "range",
              "type": "uint256"
            }
          ],
          "internalType": "struct zkAutoChess.ChessPiece",
          "name": "",
          "type": "tuple"
        }
      ],
      "stateMutability": "view",
      "type": "function"
    },
    {
      "inputs": [],
      "name": "getPlayerBattles",
      "outputs": [
        {
          "internalType": "uint256[]",
          "name": "",
          "type": "uint256[]"
        }
      ],
      "stateMutability": "view",
      "type": "function"
    },
    {
      "inputs": [
        {
          "internalType": "uint256",
          "name": "battleId",
          "type": "uint256"
        }
      ],
      "name": "joinBattle",
      "outputs": [],
      "stateMutability": "nonpayable",
      "type": "function"
    },
    {
      "inputs": [],
      "name": "lastBattleId",
      "outputs": [
        {
          "internalType": "uint256",
          "name": "",
          "type": "uint256"
        }
      ],
      "stateMutability": "view",
      "type": "function"
    },
    {
      "inputs": [],
      "name": "owner",
      "outputs": [
        {
          "internalType": "address",
          "name": "",
          "type": "address"
        }
      ],
      "stateMutability": "view",
      "type": "function"
    },
    {
      "inputs": [
        {
          "internalType": "address",
          "name": "",
          "type": "address"
        },
        {
          "internalType": "uint256",
          "name": "",
          "type": "uint256"
        }
      ],
      "name": "playerBattleIds",
      "outputs": [
        {
          "internalType": "uint256",
          "name": "",
          "type": "uint256"
        }
      ],
      "stateMutability": "view",
      "type": "function"
    },
    {
      "inputs": [],
      "name": "renounceOwnership",
      "outputs": [],
      "stateMutability": "nonpayable",
      "type": "function"
    },
    {
      "inputs": [
        {
          "internalType": "uint256",
          "name": "battleId",
          "type": "uint256"
        },
        {
          "internalType": "uint256[8]",
          "name": "input",
          "type": "uint256[8]"
        },
        {
          "internalType": "uint256",
          "name": "salt",
          "type": "uint256"
        },
        {
          "internalType": "uint256[2]",
          "name": "a",
          "type": "uint256[2]"
        },
        {
          "internalType": "uint256[2][2]",
          "name": "b",
          "type": "uint256[2][2]"
        },
        {
          "internalType": "uint256[2]",
          "name": "c",
          "type": "uint256[2]"
        }
      ],
      "name": "reveal",
      "outputs": [],
      "stateMutability": "nonpayable",
      "type": "function"
    },
    {
      "inputs": [
        {
          "internalType": "uint256",
          "name": "chessPieceId",
          "type": "uint256"
        },
        {
          "internalType": "bytes32",
          "name": "name",
          "type": "bytes32"
        },
        {
          "internalType": "uint256",
          "name": "health",
          "type": "uint256"
        },
        {
          "internalType": "uint256",
          "name": "attack",
          "type": "uint256"
        },
        {
          "internalType": "uint256",
          "name": "range",
          "type": "uint256"
        }
      ],
      "name": "setChessPiece",
      "outputs": [],
      "stateMutability": "nonpayable",
      "type": "function"
    },
    {
      "inputs": [
        {
          "internalType": "address",
          "name": "newOwner",
          "type": "address"
        }
      ],
      "name": "transferOwnership",
      "outputs": [],
      "stateMutability": "nonpayable",
      "type": "function"
    }
  ],
  "bytecode": "0x60806040523480156200001157600080fd5b5060405162002dde38038062002dde8339818101604052810190620000379190620001d5565b620000576200004b6200009f60201b60201c565b620000a760201b60201c565b80600160006101000a81548173ffffffffffffffffffffffffffffffffffffffff021916908373ffffffffffffffffffffffffffffffffffffffff1602179055505062000207565b600033905090565b60008060009054906101000a900473ffffffffffffffffffffffffffffffffffffffff169050816000806101000a81548173ffffffffffffffffffffffffffffffffffffffff021916908373ffffffffffffffffffffffffffffffffffffffff1602179055508173ffffffffffffffffffffffffffffffffffffffff168173ffffffffffffffffffffffffffffffffffffffff167f8be0079c531659141344cd1fd0a4f28419497f9722a3daafe3b4186f6b6457e060405160405180910390a35050565b600080fd5b600073ffffffffffffffffffffffffffffffffffffffff82169050919050565b60006200019d8262000170565b9050919050565b620001af8162000190565b8114620001bb57600080fd5b50565b600081519050620001cf81620001a4565b92915050565b600060208284031215620001ee57620001ed6200016b565b5b6000620001fe84828501620001be565b91505092915050565b612bc780620002176000396000f3fe608060405234801561001057600080fd5b506004361061010b5760003560e01c806361cb1212116100a2578063897a675d11610071578063897a675d146102c05780638da5cb5b146102dc578063cf576449146102fa578063f254d3941461032a578063f2fde38b146103465761010b565b806361cb12121461024c5780636b321c06146102565780636dd0ce7a14610286578063715018a6146102b65761010b565b80634a042f0d116100de5780634a042f0d146101c2578063518c83b0146101de5780635e79bb60146101fc578063606d2e96146102185761010b565b806307d3bff5146101105780631b9a83041461012e5780633cda748514610161578063439c444d14610192575b600080fd5b610118610362565b6040516101259190611c2a565b60405180910390f35b61014860048036038101906101439190611c7d565b6103f7565b6040516101589493929190611cd2565b60405180910390f35b61017b60048036038101906101769190611d75565b610427565b604051610189929190611db5565b60405180910390f35b6101ac60048036038101906101a79190611dde565b610458565b6040516101b99190611e1e565b60405180910390f35b6101dc60048036038101906101d79190611c7d565b610489565b005b6101e6610703565b6040516101f39190611e1e565b60405180910390f35b61021660048036038101906102119190611e39565b610709565b005b610232600480360381019061022d9190611c7d565b610b53565b604051610243959493929190611ea3565b60405180910390f35b610254610c03565b005b610270600480360381019061026b9190611d75565b610e61565b60405161027d9190611fb5565b60405180910390f35b6102a0600480360381019061029b9190611c7d565b610f7d565b6040516102ad919061205d565b60405180910390f35b6102be611127565b005b6102da60048036038101906102d591906120a4565b6111af565b005b6102e46112d4565b6040516102f1919061211f565b60405180910390f35b610314600480360381019061030f9190611c7d565b6112fd565b604051610321919061219e565b60405180910390f35b610344600480360381019061033f9190612224565b611352565b005b610360600480360381019061035b91906122b6565b611850565b005b6060600660003373ffffffffffffffffffffffffffffffffffffffff1673ffffffffffffffffffffffffffffffffffffffff1681526020019081526020016000208054806020026020016040519081016040528092919081815260200182805480156103ed57602002820191906000526020600020905b8154815260200190600101908083116103d9575b5050505050905090565b60026020528060005260406000206000915090508060000154908060010154908060020154908060030154905084565b6005602052816000526040600020602052806000526040600020600091509150508060000154908060020154905082565b6006602052816000526040600020818154811061047457600080fd5b90600052602060002001600091509150505481565b6003548111156104ce576040517f08c379a00000000000000000000000000000000000000000000000000000000081526004016104c590612340565b60405180910390fd5b6004600082815260200190815260200160002060010160149054906101000a900460ff16610531576040517f08c379a0000000000000000000000000000000000000000000000000000000008152600401610528906123ac565b60405180910390fd5b6004600082815260200190815260200160002060000160009054906101000a900473ffffffffffffffffffffffffffffffffffffffff1673ffffffffffffffffffffffffffffffffffffffff163373ffffffffffffffffffffffffffffffffffffffff1614156105d6576040517f08c379a00000000000000000000000000000000000000000000000000000000081526004016105cd90612418565b60405180910390fd5b60006004600083815260200190815260200160002060010160146101000a81548160ff021916908315150217905550600660003373ffffffffffffffffffffffffffffffffffffffff1673ffffffffffffffffffffffffffffffffffffffff1681526020019081526020016000206003549080600181540180825580915050600190039060005260206000200160009091909190915055336004600083815260200190815260200160002060010160006101000a81548173ffffffffffffffffffffffffffffffffffffffff021916908373ffffffffffffffffffffffffffffffffffffffff1602179055507f604dc18f0e116d898619b9bd30146dd9cf5082edc4f10ffd7006d42d8556c25b6003546001336040516106f8939291906124af565b60405180910390a150565b60035481565b8160035481111561074f576040517f08c379a000000000000000000000000000000000000000000000000000000000815260040161074690612340565b60405180910390fd5b600073ffffffffffffffffffffffffffffffffffffffff166004600083815260200190815260200160002060010160009054906101000a900473ffffffffffffffffffffffffffffffffffffffff1673ffffffffffffffffffffffffffffffffffffffff1614156107f5576040517f08c379a00000000000000000000000000000000000000000000000000000000081526004016107ec90612532565b60405180910390fd5b826004600082815260200190815260200160002060000160009054906101000a900473ffffffffffffffffffffffffffffffffffffffff1673ffffffffffffffffffffffffffffffffffffffff163373ffffffffffffffffffffffffffffffffffffffff1614806108c757506004600082815260200190815260200160002060010160009054906101000a900473ffffffffffffffffffffffffffffffffffffffff1673ffffffffffffffffffffffffffffffffffffffff163373ffffffffffffffffffffffffffffffffffffffff16145b610906576040517f08c379a00000000000000000000000000000000000000000000000000000000081526004016108fd9061259e565b60405180910390fd5b60006005600086815260200190815260200160002060003373ffffffffffffffffffffffffffffffffffffffff1673ffffffffffffffffffffffffffffffffffffffff168152602001908152602001600020600001541461099c576040517f08c379a00000000000000000000000000000000000000000000000000000000081526004016109939061260a565b60405180910390fd5b826005600086815260200190815260200160002060003373ffffffffffffffffffffffffffffffffffffffff1673ffffffffffffffffffffffffffffffffffffffff1681526020019081526020016000206000018190555060006005600086815260200190815260200160002060006004600088815260200190815260200160002060000160009054906101000a900473ffffffffffffffffffffffffffffffffffffffff1673ffffffffffffffffffffffffffffffffffffffff1673ffffffffffffffffffffffffffffffffffffffff1681526020019081526020016000206000015414158015610b18575060006005600086815260200190815260200160002060006004600088815260200190815260200160002060010160009054906101000a900473ffffffffffffffffffffffffffffffffffffffff1673ffffffffffffffffffffffffffffffffffffffff1673ffffffffffffffffffffffffffffffffffffffff1681526020019081526020016000206000015414155b15610b4d5760016004600086815260200190815260200160002060010160156101000a81548160ff0219169083151502179055505b50505050565b60046020528060005260406000206000915090508060000160009054906101000a900473ffffffffffffffffffffffffffffffffffffffff16908060010160009054906101000a900473ffffffffffffffffffffffffffffffffffffffff16908060010160149054906101000a900460ff16908060010160159054906101000a900460ff16908060020160009054906101000a900473ffffffffffffffffffffffffffffffffffffffff16905085565b60036000815480929190610c1690612659565b91905055506040518060a001604052803373ffffffffffffffffffffffffffffffffffffffff168152602001600073ffffffffffffffffffffffffffffffffffffffff168152602001600115158152602001600015158152602001600073ffffffffffffffffffffffffffffffffffffffff1681525060046000600354815260200190815260200160002060008201518160000160006101000a81548173ffffffffffffffffffffffffffffffffffffffff021916908373ffffffffffffffffffffffffffffffffffffffff16021790555060208201518160010160006101000a81548173ffffffffffffffffffffffffffffffffffffffff021916908373ffffffffffffffffffffffffffffffffffffffff16021790555060408201518160010160146101000a81548160ff02191690831515021790555060608201518160010160156101000a81548160ff02191690831515021790555060808201518160020160006101000a81548173ffffffffffffffffffffffffffffffffffffffff021916908373ffffffffffffffffffffffffffffffffffffffff160217905550905050600660003373ffffffffffffffffffffffffffffffffffffffff1673ffffffffffffffffffffffffffffffffffffffff16815260200190815260200160002060035490806001815401808255809150506001900390600052602060002001600090919091909150557f604dc18f0e116d898619b9bd30146dd9cf5082edc4f10ffd7006d42d8556c25b600354600033604051610e57939291906124af565b60405180910390a1565b610e69611a14565b600354831115610eae576040517f08c379a0000000000000000000000000000000000000000000000000000000008152600401610ea590612340565b60405180910390fd5b6005600084815260200190815260200160002060008373ffffffffffffffffffffffffffffffffffffffff1673ffffffffffffffffffffffffffffffffffffffff1681526020019081526020016000206040518060600160405290816000820154815260200160018201805480602002602001604051908101604052809291908181526020018280548015610f6257602002820191906000526020600020905b815481526020019060010190808311610f4e575b50505050508152602001600282015481525050905092915050565b610f85611a35565b600354821115610fca576040517f08c379a0000000000000000000000000000000000000000000000000000000008152600401610fc190612340565b60405180910390fd5b600460008381526020019081526020016000206040518060a00160405290816000820160009054906101000a900473ffffffffffffffffffffffffffffffffffffffff1673ffffffffffffffffffffffffffffffffffffffff1673ffffffffffffffffffffffffffffffffffffffff1681526020016001820160009054906101000a900473ffffffffffffffffffffffffffffffffffffffff1673ffffffffffffffffffffffffffffffffffffffff1673ffffffffffffffffffffffffffffffffffffffff1681526020016001820160149054906101000a900460ff161515151581526020016001820160159054906101000a900460ff161515151581526020016002820160009054906101000a900473ffffffffffffffffffffffffffffffffffffffff1673ffffffffffffffffffffffffffffffffffffffff1673ffffffffffffffffffffffffffffffffffffffff16815250509050919050565b61112f611948565b73ffffffffffffffffffffffffffffffffffffffff1661114d6112d4565b73ffffffffffffffffffffffffffffffffffffffff16146111a3576040517f08c379a000000000000000000000000000000000000000000000000000000000815260040161119a906126ee565b60405180910390fd5b6111ad6000611950565b565b6111b7611948565b73ffffffffffffffffffffffffffffffffffffffff166111d56112d4565b73ffffffffffffffffffffffffffffffffffffffff161461122b576040517f08c379a0000000000000000000000000000000000000000000000000000000008152600401611222906126ee565b60405180910390fd5b6000851161126e576040517f08c379a000000000000000000000000000000000000000000000000000000000815260040161126590612780565b60405180910390fd5b60405180608001604052808581526020018481526020018381526020018281525060026000878152602001908152602001600020600082015181600001556020820151816001015560408201518160020155606082015181600301559050505050505050565b60008060009054906101000a900473ffffffffffffffffffffffffffffffffffffffff16905090565b611305611aaa565b600260008381526020019081526020016000206040518060800160405290816000820154815260200160018201548152602001600282015481526020016003820154815250509050919050565b85600354811115611398576040517f08c379a000000000000000000000000000000000000000000000000000000000815260040161138f90612340565b60405180910390fd5b600073ffffffffffffffffffffffffffffffffffffffff166004600083815260200190815260200160002060010160009054906101000a900473ffffffffffffffffffffffffffffffffffffffff1673ffffffffffffffffffffffffffffffffffffffff16141561143e576040517f08c379a000000000000000000000000000000000000000000000000000000000815260040161143590612532565b60405180910390fd5b866004600082815260200190815260200160002060000160009054906101000a900473ffffffffffffffffffffffffffffffffffffffff1673ffffffffffffffffffffffffffffffffffffffff163373ffffffffffffffffffffffffffffffffffffffff16148061151057506004600082815260200190815260200160002060010160009054906101000a900473ffffffffffffffffffffffffffffffffffffffff1673ffffffffffffffffffffffffffffffffffffffff163373ffffffffffffffffffffffffffffffffffffffff16145b61154f576040517f08c379a00000000000000000000000000000000000000000000000000000000081526004016115469061259e565b60405180910390fd5b6004600089815260200190815260200160002060010160159054906101000a900460ff166115b2576040517f08c379a00000000000000000000000000000000000000000000000000000000081526004016115a9906127ec565b60405180910390fd5b6115ba611ad5565b600560008a815260200190815260200160002060003373ffffffffffffffffffffffffffffffffffffffff1673ffffffffffffffffffffffffffffffffffffffff16815260200190815260200160002060000154816000600a81106116225761162161280c565b5b60200201818152505060005b600881101561168a5788816008811061164a5761164961280c565b5b60200201358260018361165d919061283b565b600a811061166e5761166d61280c565b5b602002018181525050808061168290612659565b91505061162e565b5086816009600a81106116a05761169f61280c565b5b602002018181525050600160009054906101000a900473ffffffffffffffffffffffffffffffffffffffff1673ffffffffffffffffffffffffffffffffffffffff1663f3bb70f6878787856040518563ffffffff1660e01b815260040161170a94939291906129f3565b602060405180830381865afa158015611727573d6000803e3d6000fd5b505050506040513d601f19601f8201168201806040525081019061174b9190612a66565b61178a576040517f08c379a000000000000000000000000000000000000000000000000000000000815260040161178190612adf565b60405180910390fd5b87600560008b815260200190815260200160002060003373ffffffffffffffffffffffffffffffffffffffff1673ffffffffffffffffffffffffffffffffffffffff1681526020019081526020016000206001019060086117ec929190611af8565b5086600560008b815260200190815260200160002060003373ffffffffffffffffffffffffffffffffffffffff1673ffffffffffffffffffffffffffffffffffffffff16815260200190815260200160002060020181905550505050505050505050565b611858611948565b73ffffffffffffffffffffffffffffffffffffffff166118766112d4565b73ffffffffffffffffffffffffffffffffffffffff16146118cc576040517f08c379a00000000000000000000000000000000000000000000000000000000081526004016118c3906126ee565b60405180910390fd5b600073ffffffffffffffffffffffffffffffffffffffff168173ffffffffffffffffffffffffffffffffffffffff16141561193c576040517f08c379a000000000000000000000000000000000000000000000000000000000815260040161193390612b71565b60405180910390fd5b61194581611950565b50565b600033905090565b60008060009054906101000a900473ffffffffffffffffffffffffffffffffffffffff169050816000806101000a81548173ffffffffffffffffffffffffffffffffffffffff021916908373ffffffffffffffffffffffffffffffffffffffff1602179055508173ffffffffffffffffffffffffffffffffffffffff168173ffffffffffffffffffffffffffffffffffffffff167f8be0079c531659141344cd1fd0a4f28419497f9722a3daafe3b4186f6b6457e060405160405180910390a35050565b60405180606001604052806000815260200160608152602001600081525090565b6040518060a00160405280600073ffffffffffffffffffffffffffffffffffffffff168152602001600073ffffffffffffffffffffffffffffffffffffffff168152602001600015158152602001600015158152602001600073ffffffffffffffffffffffffffffffffffffffff1681525090565b6040518060800160405280600080191681526020016000815260200160008152602001600081525090565b604051806101400160405280600a90602082028036833780820191505090505090565b828054828255906000526020600020908101928215611b34579160200282015b82811115611b33578235825591602001919060010190611b18565b5b509050611b419190611b45565b5090565b5b80821115611b5e576000816000905550600101611b46565b5090565b600081519050919050565b600082825260208201905092915050565b6000819050602082019050919050565b6000819050919050565b611ba181611b8e565b82525050565b6000611bb38383611b98565b60208301905092915050565b6000602082019050919050565b6000611bd782611b62565b611be18185611b6d565b9350611bec83611b7e565b8060005b83811015611c1d578151611c048882611ba7565b9750611c0f83611bbf565b925050600181019050611bf0565b5085935050505092915050565b60006020820190508181036000830152611c448184611bcc565b905092915050565b600080fd5b611c5a81611b8e565b8114611c6557600080fd5b50565b600081359050611c7781611c51565b92915050565b600060208284031215611c9357611c92611c4c565b5b6000611ca184828501611c68565b91505092915050565b6000819050919050565b611cbd81611caa565b82525050565b611ccc81611b8e565b82525050565b6000608082019050611ce76000830187611cb4565b611cf46020830186611cc3565b611d016040830185611cc3565b611d0e6060830184611cc3565b95945050505050565b600073ffffffffffffffffffffffffffffffffffffffff82169050919050565b6000611d4282611d17565b9050919050565b611d5281611d37565b8114611d5d57600080fd5b50565b600081359050611d6f81611d49565b92915050565b60008060408385031215611d8c57611d8b611c4c565b5b6000611d9a85828601611c68565b9250506020611dab85828601611d60565b9150509250929050565b6000604082019050611dca6000830185611cc3565b611dd76020830184611cc3565b9392505050565b60008060408385031215611df557611df4611c4c565b5b6000611e0385828601611d60565b9250506020611e1485828601611c68565b9150509250929050565b6000602082019050611e336000830184611cc3565b92915050565b60008060408385031215611e5057611e4f611c4c565b5b6000611e5e85828601611c68565b9250506020611e6f85828601611c68565b9150509250929050565b611e8281611d37565b82525050565b60008115159050919050565b611e9d81611e88565b82525050565b600060a082019050611eb86000830188611e79565b611ec56020830187611e79565b611ed26040830186611e94565b611edf6060830185611e94565b611eec6080830184611e79565b9695505050505050565b600082825260208201905092915050565b6000611f1282611b62565b611f1c8185611ef6565b9350611f2783611b7e565b8060005b83811015611f58578151611f3f8882611ba7565b9750611f4a83611bbf565b925050600181019050611f2b565b5085935050505092915050565b6000606083016000830151611f7d6000860182611b98565b5060208301518482036020860152611f958282611f07565b9150506040830151611faa6040860182611b98565b508091505092915050565b60006020820190508181036000830152611fcf8184611f65565b905092915050565b611fe081611d37565b82525050565b611fef81611e88565b82525050565b60a08201600082015161200b6000850182611fd7565b50602082015161201e6020850182611fd7565b5060408201516120316040850182611fe6565b5060608201516120446060850182611fe6565b5060808201516120576080850182611fd7565b50505050565b600060a0820190506120726000830184611ff5565b92915050565b61208181611caa565b811461208c57600080fd5b50565b60008135905061209e81612078565b92915050565b600080600080600060a086880312156120c0576120bf611c4c565b5b60006120ce88828901611c68565b95505060206120df8882890161208f565b94505060406120f088828901611c68565b935050606061210188828901611c68565b925050608061211288828901611c68565b9150509295509295909350565b60006020820190506121346000830184611e79565b92915050565b61214381611caa565b82525050565b60808201600082015161215f600085018261213a565b5060208201516121726020850182611b98565b5060408201516121856040850182611b98565b5060608201516121986060850182611b98565b50505050565b60006080820190506121b36000830184612149565b92915050565b600080fd5b6000819050826020600802820111156121da576121d96121b9565b5b92915050565b6000819050826020600202820111156121fc576121fb6121b9565b5b92915050565b60008190508260406002028201111561221e5761221d6121b9565b5b92915050565b600080600080600080610240878903121561224257612241611c4c565b5b600061225089828a01611c68565b965050602061226189828a016121be565b95505061012061227389828a01611c68565b94505061014061228589828a016121e0565b93505061018061229789828a01612202565b9250506102006122a989828a016121e0565b9150509295509295509295565b6000602082840312156122cc576122cb611c4c565b5b60006122da84828501611d60565b91505092915050565b600082825260208201905092915050565b7f426174746c6520646f6573206e6f742065786973740000000000000000000000600082015250565b600061232a6015836122e3565b9150612335826122f4565b602082019050919050565b600060208201905081810360008301526123598161231d565b9050919050565b7f426174746c652069732066756c6c000000000000000000000000000000000000600082015250565b6000612396600e836122e3565b91506123a182612360565b602082019050919050565b600060208201905081810360008301526123c581612389565b9050919050565b7f506c6179657220616c726561647920696e207468697320426174746c65000000600082015250565b6000612402601d836122e3565b915061240d826123cc565b602082019050919050565b60006020820190508181036000830152612431816123f5565b9050919050565b7f4e487b7100000000000000000000000000000000000000000000000000000000600052602160045260246000fd5b6004811061247857612477612438565b5b50565b600081905061248982612467565b919050565b60006124998261247b565b9050919050565b6124a98161248e565b82525050565b60006060820190506124c46000830186611cc3565b6124d160208301856124a0565b6124de6040830184611e79565b949350505050565b7f506c6179657242206973206d697373696e670000000000000000000000000000600082015250565b600061251c6012836122e3565b9150612527826124e6565b602082019050919050565b6000602082019050818103600083015261254b8161250f565b9050919050565b7f4f6e6c7920706c6179657273206f6620626174746c6520616c6c6f7765640000600082015250565b6000612588601e836122e3565b915061259382612552565b602082019050919050565b600060208201905081810360008301526125b78161257b565b9050919050565b7f506c6179657220616c7265616479206465706c6f796564206d6f766500000000600082015250565b60006125f4601c836122e3565b91506125ff826125be565b602082019050919050565b60006020820190508181036000830152612623816125e7565b9050919050565b7f4e487b7100000000000000000000000000000000000000000000000000000000600052601160045260246000fd5b600061266482611b8e565b91507fffffffffffffffffffffffffffffffffffffffffffffffffffffffffffffffff8214156126975761269661262a565b5b600182019050919050565b7f4f776e61626c653a2063616c6c6572206973206e6f7420746865206f776e6572600082015250565b60006126d86020836122e3565b91506126e3826126a2565b602082019050919050565b60006020820190508181036000830152612707816126cb565b9050919050565b7f636865737350696563654964206d757374206265206c6172676572207468616e60008201527f2030000000000000000000000000000000000000000000000000000000000000602082015250565b600061276a6022836122e3565b91506127758261270e565b604082019050919050565b600060208201905081810360008301526127998161275d565b9050919050565b7f426174746c65206e6f7420726561647920666f722072657665616c0000000000600082015250565b60006127d6601b836122e3565b91506127e1826127a0565b602082019050919050565b60006020820190508181036000830152612805816127c9565b9050919050565b7f4e487b7100000000000000000000000000000000000000000000000000000000600052603260045260246000fd5b600061284682611b8e565b915061285183611b8e565b9250827fffffffffffffffffffffffffffffffffffffffffffffffffffffffffffffffff038211156128865761288561262a565b5b828201905092915050565b82818337600083830152505050565b6128ac60408383612891565b5050565b600060029050919050565b600081905092915050565b6000819050919050565b6128dc60408383612891565b5050565b60006128ec83836128d0565b60408301905092915050565b600082905092915050565b6000604082019050919050565b612919816128b0565b61292381846128bb565b925061292e826128c6565b8060005b838110156129675761294482846128f8565b61294e87826128e0565b965061295983612903565b925050600181019050612932565b505050505050565b6000600a9050919050565b600081905092915050565b6000819050919050565b6000602082019050919050565b6129a58161296f565b6129af818461297a565b92506129ba82612985565b8060005b838110156129eb5781516129d28782611ba7565b96506129dd8361298f565b9250506001810190506129be565b505050505050565b600061024082019050612a0960008301876128a0565b612a166040830186612910565b612a2360c08301856128a0565b612a3161010083018461299c565b95945050505050565b612a4381611e88565b8114612a4e57600080fd5b50565b600081519050612a6081612a3a565b92915050565b600060208284031215612a7c57612a7b611c4c565b5b6000612a8a84828501612a51565b91505092915050565b7f496e76616c69642070726f6f6600000000000000000000000000000000000000600082015250565b6000612ac9600d836122e3565b9150612ad482612a93565b602082019050919050565b60006020820190508181036000830152612af881612abc565b9050919050565b7f4f776e61626c653a206e6577206f776e657220697320746865207a65726f206160008201527f6464726573730000000000000000000000000000000000000000000000000000602082015250565b6000612b5b6026836122e3565b9150612b6682612aff565b604082019050919050565b60006020820190508181036000830152612b8a81612b4e565b905091905056fea2646970667358221220b98457593b9ac355e06885fb0e4d537a54689e432c6f002dfdb9d5901da95c4264736f6c634300080a0033",
  "linkReferences": {},
  "deployedLinkReferences": {}
}